{
  "contractName": "ContaCorrenteMuseu",
  "abi": [
    {
      "constant": true,
      "inputs": [],
      "name": "nome",
      "outputs": [
        {
          "name": "",
          "type": "string"
        }
      ],
      "payable": false,
      "stateMutability": "view",
      "type": "function"
    },
    {
      "constant": true,
      "inputs": [],
      "name": "responsavel",
      "outputs": [
        {
          "name": "",
          "type": "address"
        }
      ],
      "payable": false,
      "stateMutability": "view",
      "type": "function"
    },
    {
      "payable": true,
      "stateMutability": "payable",
      "type": "fallback"
    },
    {
      "anonymous": false,
      "inputs": [
        {
          "indexed": false,
          "name": "_doador",
          "type": "address"
        }
      ],
      "name": "DoacaoRealizada",
      "type": "event"
    },
    {
      "anonymous": false,
      "inputs": [
        {
          "indexed": false,
          "name": "_sacador",
          "type": "address"
        }
      ],
      "name": "SaqueEfetuado",
      "type": "event"
    },
    {
      "anonymous": false,
      "inputs": [
        {
          "indexed": false,
          "name": "_quadro",
          "type": "string"
        }
      ],
      "name": "DoacaoRecebidaQuadro",
      "type": "event"
    },
    {
      "constant": false,
      "inputs": [
        {
          "name": "_quadro",
          "type": "string"
        }
      ],
      "name": "receberDoacaoQuadro",
      "outputs": [],
      "payable": true,
      "stateMutability": "payable",
      "type": "function"
    },
    {
      "constant": true,
      "inputs": [
        {
          "name": "_quadro",
          "type": "string"
        }
      ],
      "name": "saldoQuadro",
      "outputs": [
        {
          "name": "",
          "type": "uint256"
        }
      ],
      "payable": false,
      "stateMutability": "view",
      "type": "function"
    },
    {
      "constant": true,
      "inputs": [],
      "name": "consultarSaldoTotal",
      "outputs": [
        {
          "name": "",
          "type": "uint256"
        }
      ],
      "payable": false,
      "stateMutability": "view",
      "type": "function"
    },
    {
      "constant": false,
      "inputs": [
        {
          "name": "_valorSaque",
          "type": "uint256"
        }
      ],
      "name": "saqueContaCorrente",
      "outputs": [],
      "payable": false,
      "stateMutability": "nonpayable",
      "type": "function"
    }
  ],
  "bytecode": "0x60806040526040805190810160405280600381526020017f47424300000000000000000000000000000000000000000000000000000000008152506000908051906020019061004f9291906100a3565b5033600160006101000a81548173ffffffffffffffffffffffffffffffffffffffff021916908373ffffffffffffffffffffffffffffffffffffffff16021790555034801561009d57600080fd5b50610148565b828054600181600116156101000203166002900490600052602060002090601f016020900481019282601f106100e457805160ff1916838001178555610112565b82800160010185558215610112579182015b828111156101115782518255916020019190600101906100f6565b5b50905061011f9190610123565b5090565b61014591905b80821115610141576000816000905550600101610129565b5090565b90565b61077f806101576000396000f300608060405260043610610078576000357c0100000000000000000000000000000000000000000000000000000000900463ffffffff16806301e4fb2c146100dd57806321a82f3c146101085780632deb124b146101855780633d78343114610215578063e3aa62b114610271578063ef498998146102c8575b7f58fe60ec254e0fab99cb5a2e708907cc7f8fa6ade69ccb9d75e79fbcdc1e6be533604051808273ffffffffffffffffffffffffffffffffffffffff1673ffffffffffffffffffffffffffffffffffffffff16815260200191505060405180910390a1005b3480156100e957600080fd5b506100f26102f5565b6040518082815260200191505060405180910390f35b34801561011457600080fd5b5061016f600480360381019080803590602001908201803590602001908080601f0160208091040260200160405190810160405280939291908181526020018383808284378201915050505050509192919290505050610314565b6040518082815260200191505060405180910390f35b34801561019157600080fd5b5061019a6103dc565b6040518080602001828103825283818151815260200191508051906020019080838360005b838110156101da5780820151818401526020810190506101bf565b50505050905090810190601f1680156102075780820380516001836020036101000a031916815260200191505b509250505060405180910390f35b61026f600480360381019080803590602001908201803590602001908080601f016020809104026020016040519081016040528093929190818152602001838380828437820191505050505050919291929050505061047a565b005b34801561027d57600080fd5b50610286610564565b604051808273ffffffffffffffffffffffffffffffffffffffff1673ffffffffffffffffffffffffffffffffffffffff16815260200191505060405180910390f35b3480156102d457600080fd5b506102f36004803603810190808035906020019092919050505061058a565b005b60003073ffffffffffffffffffffffffffffffffffffffff1631905090565b6000806002600061032485610745565b6000191660001916815260200190815260200160002054141515156103b1576040517f08c379a00000000000000000000000000000000000000000000000000000000081526004018080602001828103825260188152602001807f5175616e64726f2064657665207365722076c3a16c69646f000000000000000081525060200191505060405180910390fd5b600260006103be84610745565b60001916600019168152602001908152602001600020549050919050565b60008054600181600116156101000203166002900480601f0160208091040260200160405190810160405280929190818152602001828054600181600116156101000203166002900480156104725780601f1061044757610100808354040283529160200191610472565b820191906000526020600020905b81548152906001019060200180831161045557829003601f168201915b505050505081565b600061048582610745565b9050346002600083600019166000191681526020019081526020016000205401600260008360001916600019168152602001908152602001600020819055507f1a52ced161a4eda39370ff48b8189bf22ec013c1b69b20b7588149715072c245826040518080602001828103825283818151815260200191508051906020019080838360005b8381101561052657808201518184015260208101905061050b565b50505050905090810190601f1680156105535780820380516001836020036101000a031916815260200191505b509250505060405180910390a15050565b600160009054906101000a900473ffffffffffffffffffffffffffffffffffffffff1681565b600160009054906101000a900473ffffffffffffffffffffffffffffffffffffffff1673ffffffffffffffffffffffffffffffffffffffff163373ffffffffffffffffffffffffffffffffffffffff16141515610675576040517f08c379a000000000000000000000000000000000000000000000000000000000815260040180806020018281038252602a8152602001807f536f6d656e746520726573706f6e736176656c20706f6465207265616c697a6181526020017f72206f2073617175652e0000000000000000000000000000000000000000000081525060400191505060405180910390fd5b3073ffffffffffffffffffffffffffffffffffffffff1631811115151561069857fe5b3373ffffffffffffffffffffffffffffffffffffffff166108fc829081150290604051600060405180830381858888f193505050501580156106de573d6000803e3d6000fd5b507f4dd131d88039b57131bbc574a887c3c96f0124f6180b30f4bd3d56600a9afc3033604051808273ffffffffffffffffffffffffffffffffffffffff1673ffffffffffffffffffffffffffffffffffffffff16815260200191505060405180910390a150565b6000602082015190509190505600a165627a7a723058203d7c80a805ced049cd6926eaac08d0e13f9dcfe8da12c534a22be0da406c847b0029",
  "source": "pragma solidity ^0.4.24;\n\nimport \"../libs/StringUtils.sol\";\n\ncontract ContaCorrenteMuseu {\n    using StringUtils for string;\n\n    string public nome = \"GBC\";\n    address public responsavel = msg.sender;\n\n    mapping (bytes32=>uint256) doacaoQuadros;    \n\n    event DoacaoRealizada(address _doador);\n    event SaqueEfetuado(address _sacador);\n    event DoacaoRecebidaQuadro(string _quadro);\n\n    function() public payable {\n        emit DoacaoRealizada(msg.sender);\n    }\n\n    function receberDoacaoQuadro(string _quadro) public payable {\n        bytes32 hashQuadroByte32 = _quadro.stringToBytes32();\n        doacaoQuadros[hashQuadroByte32] = ( doacaoQuadros[hashQuadroByte32] + msg.value);\n        emit DoacaoRecebidaQuadro(_quadro);\n    }\n\n    function saldoQuadro(string _quadro) public view returns(uint256) {\n        require(doacaoQuadros[_quadro.stringToBytes32()] != 0x0, \"Quandro deve ser válido\");\n        return doacaoQuadros[_quadro.stringToBytes32()];\n    }\n\n    function consultarSaldoTotal() public view returns(uint) {\n        return address(this).balance;\n    }\n\n    function saqueContaCorrente(uint256 _valorSaque) public {\n        require(msg.sender == responsavel, \"Somente responsavel pode realizar o saque.\");\n        assert(_valorSaque <= address(this).balance);\n        address(msg.sender).transfer(_valorSaque);\n\n        emit SaqueEfetuado(msg.sender);\n    }\n}\n",
  "sourcePath": "/Users/henriqueleite/Documents/henrique/aula/eth_dapp/truffle/contracts/museu/ContaCorrenteMuseu.sol",
  "compiler": {
    "name": "solc",
    "version": "0.4.24+commit.e67f0147.Emscripten.clang"
  },
  "schemaVersion": "2.0.1",
  "updatedAt": "2018-12-04T23:42:54.669Z"
}