{
  "contractName": "PersonTeste",
  "abi": [
    {
      "constant": true,
      "inputs": [],
      "name": "name",
      "outputs": [
        {
          "name": "",
          "type": "string"
        }
      ],
      "payable": false,
      "stateMutability": "view",
      "type": "function"
    },
    {
      "constant": true,
      "inputs": [],
      "name": "identificationPerson",
      "outputs": [
        {
          "name": "",
          "type": "uint256"
        }
      ],
      "payable": false,
      "stateMutability": "view",
      "type": "function"
    },
    {
      "constant": true,
      "inputs": [],
      "name": "email",
      "outputs": [
        {
          "name": "",
          "type": "string"
        }
      ],
      "payable": false,
      "stateMutability": "view",
      "type": "function"
    },
    {
      "constant": true,
      "inputs": [],
      "name": "owner",
      "outputs": [
        {
          "name": "",
          "type": "address"
        }
      ],
      "payable": false,
      "stateMutability": "view",
      "type": "function"
    },
    {
      "constant": true,
      "inputs": [],
      "name": "dataCreate",
      "outputs": [
        {
          "name": "",
          "type": "uint256"
        }
      ],
      "payable": false,
      "stateMutability": "view",
      "type": "function"
    },
    {
      "inputs": [
        {
          "name": "_name",
          "type": "string"
        },
        {
          "name": "_email",
          "type": "string"
        }
      ],
      "payable": false,
      "stateMutability": "nonpayable",
      "type": "constructor"
    },
    {
      "anonymous": false,
      "inputs": [
        {
          "indexed": false,
          "name": "_addressPerson",
          "type": "address"
        },
        {
          "indexed": false,
          "name": "_newEmail",
          "type": "string"
        }
      ],
      "name": "LogUpdateEmail",
      "type": "event"
    },
    {
      "constant": false,
      "inputs": [
        {
          "name": "_email",
          "type": "string"
        }
      ],
      "name": "changeEmail",
      "outputs": [],
      "payable": false,
      "stateMutability": "nonpayable",
      "type": "function"
    }
  ],
  "bytecode": "0x608060405234801561001057600080fd5b506040516107ac3803806107ac833981018060405281019080805182019291906020018051820192919050505081600390805190602001906100539291906100c2565b50806004908051906020019061006a9291906100c2565b50336000806101000a81548173ffffffffffffffffffffffffffffffffffffffff021916908373ffffffffffffffffffffffffffffffffffffffff160217905550426001819055504243016002819055505050610167565b828054600181600116156101000203166002900490600052602060002090601f016020900481019282601f1061010357805160ff1916838001178555610131565b82800160010185558215610131579182015b82811115610130578251825591602001919060010190610115565b5b50905061013e9190610142565b5090565b61016491905b80821115610160576000816000905550600101610148565b5090565b90565b610636806101766000396000f300608060405260043610610078576000357c0100000000000000000000000000000000000000000000000000000000900463ffffffff16806306fdde031461007d5780636b8315101461010d578063820e93f5146101385780638da5cb5b146101c8578063d553357d1461021f578063f3e3ee6914610288575b600080fd5b34801561008957600080fd5b506100926102b3565b6040518080602001828103825283818151815260200191508051906020019080838360005b838110156100d25780820151818401526020810190506100b7565b50505050905090810190601f1680156100ff5780820380516001836020036101000a031916815260200191505b509250505060405180910390f35b34801561011957600080fd5b50610122610351565b6040518082815260200191505060405180910390f35b34801561014457600080fd5b5061014d610357565b6040518080602001828103825283818151815260200191508051906020019080838360005b8381101561018d578082015181840152602081019050610172565b50505050905090810190601f1680156101ba5780820380516001836020036101000a031916815260200191505b509250505060405180910390f35b3480156101d457600080fd5b506101dd6103f5565b604051808273ffffffffffffffffffffffffffffffffffffffff1673ffffffffffffffffffffffffffffffffffffffff16815260200191505060405180910390f35b34801561022b57600080fd5b50610286600480360381019080803590602001908201803590602001908080601f016020809104026020016040519081016040528093929190818152602001838380828437820191505050505050919291929050505061041a565b005b34801561029457600080fd5b5061029d61055f565b6040518082815260200191505060405180910390f35b60038054600181600116156101000203166002900480601f0160208091040260200160405190810160405280929190818152602001828054600181600116156101000203166002900480156103495780601f1061031e57610100808354040283529160200191610349565b820191906000526020600020905b81548152906001019060200180831161032c57829003601f168201915b505050505081565b60025481565b60048054600181600116156101000203166002900480601f0160208091040260200160405190810160405280929190818152602001828054600181600116156101000203166002900480156103ed5780601f106103c2576101008083540402835291602001916103ed565b820191906000526020600020905b8154815290600101906020018083116103d057829003601f168201915b505050505081565b6000809054906101000a900473ffffffffffffffffffffffffffffffffffffffff1681565b6000809054906101000a900473ffffffffffffffffffffffffffffffffffffffff1673ffffffffffffffffffffffffffffffffffffffff163373ffffffffffffffffffffffffffffffffffffffff1614151561047557600080fd5b806004908051906020019061048b929190610565565b507fa79e0bb5b2e79f7ddeca9530b41e5b4cca973196b9c0c73537101a3d8560d79f3382604051808373ffffffffffffffffffffffffffffffffffffffff1673ffffffffffffffffffffffffffffffffffffffff16815260200180602001828103825283818151815260200191508051906020019080838360005b83811015610521578082015181840152602081019050610506565b50505050905090810190601f16801561054e5780820380516001836020036101000a031916815260200191505b50935050505060405180910390a150565b60015481565b828054600181600116156101000203166002900490600052602060002090601f016020900481019282601f106105a657805160ff19168380011785556105d4565b828001600101855582156105d4579182015b828111156105d35782518255916020019190600101906105b8565b5b5090506105e191906105e5565b5090565b61060791905b808211156106035760008160009055506001016105eb565b5090565b905600a165627a7a72305820bcd5ddfc8ae6e234e4ece5ffb27b6d9d3e2715c7d639c9f007461629cdf140060029",
  "source": "pragma solidity ^0.4.24;\n\ncontract PersonTeste {\n    address public owner;\n    \n    uint public dataCreate;\n    uint public identificationPerson;\n    \n    string public name;\n    string public email;\n    \n    event LogUpdateEmail(address _addressPerson, string _newEmail);\n    \n    constructor(string _name, string _email) public {\n        name = _name;\n        email = _email;\n        owner = msg.sender;\n        dataCreate = now;\n        identificationPerson = block.number + now;\n    }\n    \n    modifier onlyOwner() {\n        require (msg.sender == owner);\n        _;\n    }\n    \n    function changeEmail(string _email) public onlyOwner {\n        email = _email;\n        emit LogUpdateEmail(msg.sender, _email);\n    }\n}",
  "sourcePath": "/Users/henriqueleite/Documents/henrique/aula/eth_dapp/truffle/contracts/PersonTeste.sol",
  "compiler": {
    "name": "solc",
    "version": "0.4.24+commit.e67f0147.Emscripten.clang"
  },
  "schemaVersion": "2.0.1",
  "updatedAt": "2018-11-29T22:09:18.100Z"
}