{
  "contractName": "StandardTokenERC20",
  "abi": [
    {
      "constant": false,
      "inputs": [
        {
          "name": "to",
          "type": "address"
        },
        {
          "name": "value",
          "type": "uint256"
        }
      ],
      "name": "transfer",
      "outputs": [],
      "payable": false,
      "stateMutability": "nonpayable",
      "type": "function"
    }
  ],
  "bytecode": "0x608060405234801561001057600080fd5b50610104806100206000396000f300608060405260043610603f576000357c0100000000000000000000000000000000000000000000000000000000900463ffffffff168063a9059cbb146044575b600080fd5b348015604f57600080fd5b50608c600480360381019080803573ffffffffffffffffffffffffffffffffffffffff16906020019092919080359060200190929190505050608e565b005b8173ffffffffffffffffffffffffffffffffffffffff166108fc829081150290604051600060405180830381858888f1935050505015801560d3573d6000803e3d6000fd5b5050505600a165627a7a723058208599c7a032b1b5d16b0c33f7615a13ecd9849a190bcf3a827ee1729010c70adb0029",
  "source": "pragma solidity ^0.4.24;\n\nimport \"./InterfaceERC20.sol\";\n\ncontract StandardTokenERC20 is InterfaceERC20 {\n\n    function transfer(address to, uint256 value) public {\n        to.transfer(value);\n    }\n}",
  "sourcePath": "/Users/henriqueleite/Documents/henrique/aula/eth_dapp/truffle/contracts/token/StandardTokenERC20.sol",
  "compiler": {
    "name": "solc",
    "version": "0.4.24+commit.e67f0147.Emscripten.clang"
  },
  "schemaVersion": "2.0.1",
  "updatedAt": "2018-11-27T22:41:09.340Z"
}